{
  "contractName": "MultiSigWalletDapp",
  "abi": [
    {
      "inputs": [],
      "payable": false,
      "stateMutability": "nonpayable",
      "type": "constructor"
    },
    {
      "payable": true,
      "stateMutability": "payable",
      "type": "fallback"
    },
    {
      "anonymous": false,
      "inputs": [
        {
          "indexed": true,
          "name": "_contributor",
          "type": "address"
        },
        {
          "indexed": false,
          "name": "_valueInWei",
          "type": "uint256"
        }
      ],
      "name": "ReceivedContribution",
      "type": "event"
    },
    {
      "anonymous": false,
      "inputs": [
        {
          "indexed": true,
          "name": "_beneficiary",
          "type": "address"
        },
        {
          "indexed": false,
          "name": "_valueInWei",
          "type": "uint256"
        }
      ],
      "name": "ProposalSubmitted",
      "type": "event"
    },
    {
      "anonymous": false,
      "inputs": [
        {
          "indexed": true,
          "name": "_approver",
          "type": "address"
        },
        {
          "indexed": true,
          "name": "_beneficiary",
          "type": "address"
        },
        {
          "indexed": false,
          "name": "_valueInWei",
          "type": "uint256"
        }
      ],
      "name": "ProposalApproved",
      "type": "event"
    },
    {
      "anonymous": false,
      "inputs": [
        {
          "indexed": true,
          "name": "_approver",
          "type": "address"
        },
        {
          "indexed": true,
          "name": "_beneficiary",
          "type": "address"
        },
        {
          "indexed": false,
          "name": "_valueInWei",
          "type": "uint256"
        }
      ],
      "name": "ProposalRejected",
      "type": "event"
    },
    {
      "anonymous": false,
      "inputs": [
        {
          "indexed": true,
          "name": "_beneficiary",
          "type": "address"
        },
        {
          "indexed": false,
          "name": "_valueInWei",
          "type": "uint256"
        }
      ],
      "name": "WithdrawPerformed",
      "type": "event"
    },
    {
      "constant": false,
      "inputs": [],
      "name": "owner",
      "outputs": [
        {
          "name": "",
          "type": "address"
        }
      ],
      "payable": false,
      "stateMutability": "nonpayable",
      "type": "function"
    },
    {
      "constant": false,
      "inputs": [],
      "name": "endContributionPeriod",
      "outputs": [],
      "payable": false,
      "stateMutability": "nonpayable",
      "type": "function"
    },
    {
      "constant": false,
      "inputs": [
        {
          "name": "_valueInWei",
          "type": "uint256"
        }
      ],
      "name": "submitProposal",
      "outputs": [],
      "payable": false,
      "stateMutability": "nonpayable",
      "type": "function"
    },
    {
      "constant": true,
      "inputs": [],
      "name": "listOpenBeneficiariesProposals",
      "outputs": [
        {
          "name": "",
          "type": "address[]"
        }
      ],
      "payable": false,
      "stateMutability": "view",
      "type": "function"
    },
    {
      "constant": true,
      "inputs": [
        {
          "name": "_beneficiary",
          "type": "address"
        }
      ],
      "name": "getBeneficiaryProposal",
      "outputs": [
        {
          "name": "",
          "type": "uint256"
        }
      ],
      "payable": false,
      "stateMutability": "view",
      "type": "function"
    },
    {
      "constant": true,
      "inputs": [],
      "name": "listContributors",
      "outputs": [
        {
          "name": "",
          "type": "address[]"
        }
      ],
      "payable": false,
      "stateMutability": "view",
      "type": "function"
    },
    {
      "constant": true,
      "inputs": [
        {
          "name": "_contributor",
          "type": "address"
        }
      ],
      "name": "getContributorAmount",
      "outputs": [
        {
          "name": "",
          "type": "uint256"
        }
      ],
      "payable": false,
      "stateMutability": "view",
      "type": "function"
    },
    {
      "constant": false,
      "inputs": [
        {
          "name": "_beneficiary",
          "type": "address"
        }
      ],
      "name": "approve",
      "outputs": [],
      "payable": false,
      "stateMutability": "nonpayable",
      "type": "function"
    },
    {
      "constant": false,
      "inputs": [
        {
          "name": "_beneficiary",
          "type": "address"
        }
      ],
      "name": "reject",
      "outputs": [],
      "payable": false,
      "stateMutability": "nonpayable",
      "type": "function"
    },
    {
      "constant": false,
      "inputs": [
        {
          "name": "_valueInWei",
          "type": "uint256"
        }
      ],
      "name": "withdraw",
      "outputs": [],
      "payable": false,
      "stateMutability": "nonpayable",
      "type": "function"
    },
    {
      "constant": true,
      "inputs": [
        {
          "name": "_signer",
          "type": "address"
        },
        {
          "name": "_beneficiary",
          "type": "address"
        }
      ],
      "name": "getSignerVote",
      "outputs": [
        {
          "name": "",
          "type": "uint256"
        }
      ],
      "payable": false,
      "stateMutability": "view",
      "type": "function"
    }
  ],
  "bytecode": "0x60806040526000600460146101000a81548160ff02191690831515021790555034801561002b57600080fd5b5033600460006101000a81548173ffffffffffffffffffffffffffffffffffffffff021916908373ffffffffffffffffffffffffffffffffffffffff1602179055506117b48061007c6000396000f3006080604052600436106100af576000357c0100000000000000000000000000000000000000000000000000000000900463ffffffff16806302b110821461026e578063237819fe146102855780632e1a7d4d146102f15780632e5184641461031e57806359109b6414610375578063736d95aa146103e157806386b81eb61461040e5780638da5cb5b14610485578063ab0da5a9146104dc578063c651aada1461051f578063daea85c514610576575b60001515600460149054906101000a900460ff1615151415156100d157600080fd5b6000600260003373ffffffffffffffffffffffffffffffffffffffff1673ffffffffffffffffffffffffffffffffffffffff1681526020019081526020016000205414156101925760033390806001815401808255809150509060018203906000526020600020016000909192909190916101000a81548173ffffffffffffffffffffffffffffffffffffffff021916908373ffffffffffffffffffffffffffffffffffffffff160217905550506007600081548092919060010191905055505b6101db600260003373ffffffffffffffffffffffffffffffffffffffff1673ffffffffffffffffffffffffffffffffffffffff16815260200190815260200160002054346105b9565b600260003373ffffffffffffffffffffffffffffffffffffffff1673ffffffffffffffffffffffffffffffffffffffff168152602001908152602001600020819055503373ffffffffffffffffffffffffffffffffffffffff167f4af4040804455d5519363ab32562d3354dc05571e414cec4d799a581d6e6b3a7346040518082815260200191505060405180910390a2005b34801561027a57600080fd5b506102836105d7565b005b34801561029157600080fd5b5061029a610747565b6040518080602001828103825283818151815260200191508051906020019060200280838360005b838110156102dd5780820151818401526020810190506102c2565b505050509050019250505060405180910390f35b3480156102fd57600080fd5b5061031c600480360381019080803590602001909291905050506107d5565b005b34801561032a57600080fd5b5061035f600480360381019080803573ffffffffffffffffffffffffffffffffffffffff1690602001909291905050506109a5565b6040518082815260200191505060405180910390f35b34801561038157600080fd5b5061038a6109ee565b6040518080602001828103825283818151815260200191508051906020019060200280838360005b838110156103cd5780820151818401526020810190506103b2565b505050509050019250505060405180910390f35b3480156103ed57600080fd5b5061040c60048036038101908080359060200190929190505050610a7c565b005b34801561041a57600080fd5b5061046f600480360381019080803573ffffffffffffffffffffffffffffffffffffffff169060200190929190803573ffffffffffffffffffffffffffffffffffffffff169060200190929190505050610cf9565b6040518082815260200191505060405180910390f35b34801561049157600080fd5b5061049a610d82565b604051808273ffffffffffffffffffffffffffffffffffffffff1673ffffffffffffffffffffffffffffffffffffffff16815260200191505060405180910390f35b3480156104e857600080fd5b5061051d600480360381019080803573ffffffffffffffffffffffffffffffffffffffff169060200190929190505050610e07565b005b34801561052b57600080fd5b50610560600480360381019080803573ffffffffffffffffffffffffffffffffffffffff16906020019092919050505061116c565b6040518082815260200191505060405180910390f35b34801561058257600080fd5b506105b7600480360381019080803573ffffffffffffffffffffffffffffffffffffffff1690602001909291905050506111b7565b005b60008082840190508381101515156105cd57fe5b8091505092915050565b3373fa3c6a1d480a14c546f12cdbb6d1bacbf02a161073ffffffffffffffffffffffffffffffffffffffff168173ffffffffffffffffffffffffffffffffffffffff1614806106655750732f47343208d8db38a64f49d7384ce70367fc98c073ffffffffffffffffffffffffffffffffffffffff168173ffffffffffffffffffffffffffffffffffffffff16145b806106af5750737c0e7b2418141f492653c6bf9ced144c338ba74073ffffffffffffffffffffffffffffffffffffffff168173ffffffffffffffffffffffffffffffffffffffff16145b15156106ba57600080fd5b60003073ffffffffffffffffffffffffffffffffffffffff16311115156106e057600080fd5b60001515600460149054906101000a900460ff16151514151561070257600080fd5b6001600460146101000a81548160ff0219169083151502179055503073ffffffffffffffffffffffffffffffffffffffff163160058190555060055460068190555050565b606060038054806020026020016040519081016040528092919081815260200182805480156107cb57602002820191906000526020600020905b8160009054906101000a900473ffffffffffffffffffffffffffffffffffffffff1673ffffffffffffffffffffffffffffffffffffffff1681526020019060010190808311610781575b5050505050905090565b60003373ffffffffffffffffffffffffffffffffffffffff16141515156107fb57600080fd5b60011515600460149054906101000a900460ff16151514151561081d57600080fd5b60026000803373ffffffffffffffffffffffffffffffffffffffff1673ffffffffffffffffffffffffffffffffffffffff168152602001908152602001600020600201541015151561086e57600080fd5b806000803373ffffffffffffffffffffffffffffffffffffffff1673ffffffffffffffffffffffffffffffffffffffff16815260200190815260200160002060000154101515156108be57600080fd5b806000803373ffffffffffffffffffffffffffffffffffffffff1673ffffffffffffffffffffffffffffffffffffffff168152602001908152602001600020600001600082825403925050819055503373ffffffffffffffffffffffffffffffffffffffff166108fc829081150290604051600060405180830381858888f19350505050158015610953573d6000803e3d6000fd5b503373ffffffffffffffffffffffffffffffffffffffff167ffca010261c61503eba494501406a4775d0887b49857dc75c92d1cc92a20e4e83826040518082815260200191505060405180910390a250565b6000600260008373ffffffffffffffffffffffffffffffffffffffff1673ffffffffffffffffffffffffffffffffffffffff168152602001908152602001600020549050919050565b60606001805480602002602001604051908101604052809291908181526020018280548015610a7257602002820191906000526020600020905b8160009054906101000a900473ffffffffffffffffffffffffffffffffffffffff1673ffffffffffffffffffffffffffffffffffffffff1681526020019060010190808311610a28575b5050505050905090565b60003373ffffffffffffffffffffffffffffffffffffffff1614151515610aa257600080fd5b60011515600460149054906101000a900460ff161515141515610ac457600080fd5b80600654111515610ad457600080fd5b600a600554811515610ae257fe5b048111151515610af157600080fd5b73fa3c6a1d480a14c546f12cdbb6d1bacbf02a161073ffffffffffffffffffffffffffffffffffffffff163373ffffffffffffffffffffffffffffffffffffffff1614158015610b815750732f47343208d8db38a64f49d7384ce70367fc98c073ffffffffffffffffffffffffffffffffffffffff163373ffffffffffffffffffffffffffffffffffffffff1614155b8015610bcd5750737c0e7b2418141f492653c6bf9ced144c338ba74073ffffffffffffffffffffffffffffffffffffffff163373ffffffffffffffffffffffffffffffffffffffff1614155b1515610bd857600080fd5b806000803373ffffffffffffffffffffffffffffffffffffffff1673ffffffffffffffffffffffffffffffffffffffff1681526020019081526020016000206000018190555060013390806001815401808255809150509060018203906000526020600020016000909192909190916101000a81548173ffffffffffffffffffffffffffffffffffffffff021916908373ffffffffffffffffffffffffffffffffffffffff160217905550503373ffffffffffffffffffffffffffffffffffffffff167f9502d7618553b38b99edbe5d1547756cc9ab18db5ddd0674b051490ca4e2fb4c826040518082815260200191505060405180910390a2610cde6006548261156d565b60068190555060086000815480929190600101919050555050565b60008060008373ffffffffffffffffffffffffffffffffffffffff1673ffffffffffffffffffffffffffffffffffffffff16815260200190815260200160002060010160008473ffffffffffffffffffffffffffffffffffffffff1673ffffffffffffffffffffffffffffffffffffffff16815260200190815260200160002054905092915050565b6000600460009054906101000a900473ffffffffffffffffffffffffffffffffffffffff1673ffffffffffffffffffffffffffffffffffffffff166108fc3073ffffffffffffffffffffffffffffffffffffffff16319081150290604051600060405180830381858888f19350505050158015610e03573d6000803e3d6000fd5b5090565b3373fa3c6a1d480a14c546f12cdbb6d1bacbf02a161073ffffffffffffffffffffffffffffffffffffffff168173ffffffffffffffffffffffffffffffffffffffff161480610e955750732f47343208d8db38a64f49d7384ce70367fc98c073ffffffffffffffffffffffffffffffffffffffff168173ffffffffffffffffffffffffffffffffffffffff16145b80610edf5750737c0e7b2418141f492653c6bf9ced144c338ba74073ffffffffffffffffffffffffffffffffffffffff168173ffffffffffffffffffffffffffffffffffffffff16145b1515610eea57600080fd5b60011515600460149054906101000a900460ff161515141515610f0c57600080fd5b60008060008473ffffffffffffffffffffffffffffffffffffffff1673ffffffffffffffffffffffffffffffffffffffff16815260200190815260200160002060010160003373ffffffffffffffffffffffffffffffffffffffff1673ffffffffffffffffffffffffffffffffffffffff16815260200190815260200160002054141515610f9957600080fd5b60026000808473ffffffffffffffffffffffffffffffffffffffff1673ffffffffffffffffffffffffffffffffffffffff16815260200190815260200160002060010160003373ffffffffffffffffffffffffffffffffffffffff1673ffffffffffffffffffffffffffffffffffffffff168152602001908152602001600020819055506000808373ffffffffffffffffffffffffffffffffffffffff1673ffffffffffffffffffffffffffffffffffffffff1681526020019081526020016000206003016000815480929190600101919050555060016000808473ffffffffffffffffffffffffffffffffffffffff1673ffffffffffffffffffffffffffffffffffffffff1681526020019081526020016000206003015411156110c2576110c182611586565b5b8173ffffffffffffffffffffffffffffffffffffffff163373ffffffffffffffffffffffffffffffffffffffff167ff810df3b626605dbc005192086f67ae1f96ccb46b942d17dc90f159a1018298e6000808673ffffffffffffffffffffffffffffffffffffffff1673ffffffffffffffffffffffffffffffffffffffff168152602001908152602001600020600001546040518082815260200191505060405180910390a35050565b60008060008373ffffffffffffffffffffffffffffffffffffffff1673ffffffffffffffffffffffffffffffffffffffff168152602001908152602001600020600001549050919050565b3373fa3c6a1d480a14c546f12cdbb6d1bacbf02a161073ffffffffffffffffffffffffffffffffffffffff168173ffffffffffffffffffffffffffffffffffffffff1614806112455750732f47343208d8db38a64f49d7384ce70367fc98c073ffffffffffffffffffffffffffffffffffffffff168173ffffffffffffffffffffffffffffffffffffffff16145b8061128f5750737c0e7b2418141f492653c6bf9ced144c338ba74073ffffffffffffffffffffffffffffffffffffffff168173ffffffffffffffffffffffffffffffffffffffff16145b151561129a57600080fd5b60011515600460149054906101000a900460ff1615151415156112bc57600080fd5b60008060008473ffffffffffffffffffffffffffffffffffffffff1673ffffffffffffffffffffffffffffffffffffffff16815260200190815260200160002060010160003373ffffffffffffffffffffffffffffffffffffffff1673ffffffffffffffffffffffffffffffffffffffff1681526020019081526020016000205414151561134957600080fd5b60016000808473ffffffffffffffffffffffffffffffffffffffff1673ffffffffffffffffffffffffffffffffffffffff16815260200190815260200160002060010160003373ffffffffffffffffffffffffffffffffffffffff1673ffffffffffffffffffffffffffffffffffffffff168152602001908152602001600020819055506000808373ffffffffffffffffffffffffffffffffffffffff1673ffffffffffffffffffffffffffffffffffffffff168152602001908152602001600020600301600081548092919060010191905055506000808373ffffffffffffffffffffffffffffffffffffffff1673ffffffffffffffffffffffffffffffffffffffff1681526020019081526020016000206002016000815480929190600101919050555060016000808473ffffffffffffffffffffffffffffffffffffffff1673ffffffffffffffffffffffffffffffffffffffff1681526020019081526020016000206003015411156114c3576114c282611586565b5b8173ffffffffffffffffffffffffffffffffffffffff163373ffffffffffffffffffffffffffffffffffffffff167f6785be290ed8ae6f56ea596a5b8b77b39d1c96fa2f2d17de1c58be88bb67af4d6000808673ffffffffffffffffffffffffffffffffffffffff1673ffffffffffffffffffffffffffffffffffffffff168152602001908152602001600020600001546040518082815260200191505060405180910390a35050565b600082821115151561157b57fe5b818303905092915050565b6000806001805490509150600090505b600180549050811015611621578273ffffffffffffffffffffffffffffffffffffffff166001828154811015156115c957fe5b9060005260206000200160009054906101000a900473ffffffffffffffffffffffffffffffffffffffff1673ffffffffffffffffffffffffffffffffffffffff161415611614578091505b8080600101915050611596565b600180549050821415156117325760018080805490500381548110151561164457fe5b9060005260206000200160009054906101000a900473ffffffffffffffffffffffffffffffffffffffff1660018381548110151561167e57fe5b9060005260206000200160006101000a81548173ffffffffffffffffffffffffffffffffffffffff021916908373ffffffffffffffffffffffffffffffffffffffff1602179055506001808080549050038154811015156116db57fe5b9060005260206000200160006101000a81549073ffffffffffffffffffffffffffffffffffffffff0219169055600180548091906001900361171d9190611737565b50600860008154809291906001900391905055505b505050565b81548183558181111561175e5781836000526020600020918201910161175d9190611763565b5b505050565b61178591905b80821115611781576000816000905550600101611769565b5090565b905600a165627a7a72305820592123b364bd39cfce24b9d7068e2d62718ffb7f470876c4751bcf4885640bb70029",
  "source": "pragma solidity ^0.4.20;\n\ncontract MultiSigWalletDapp {\nstruct proposal{\n  uint value;\n  mapping (address => uint) decisionFromSigners;\n  uint noofApprovals;\n  uint noOfDecisions;\n}\nmapping (address => proposal) submittedProposals;\naddress[] openProposals;\nmapping (address => uint) contributorsMap;\naddress[] contributors;\naddress ownerOfContract;\nbool activeForProposals = false;\nuint initialTotalHoldings;\nuint totalHoldings;\nuint noOfContributors;\nuint noOfOpenProposals;\n\nfunction() payable public{\n  require(activeForProposals==false);\n  if(contributorsMap[msg.sender] == 0){\n    contributors.push(msg.sender);\n    noOfContributors++;\n  }\n  contributorsMap[msg.sender] = add(contributorsMap[msg.sender], msg.value);\n   emit ReceivedContribution(msg.sender,msg.value);\n}\nconstructor() public {\n  ownerOfContract = msg.sender;\n}\nmodifier isSigner(address _signer){\n  require(_signer == 0xfA3C6a1d480A14c546F12cdBB6d1BaCBf02A1610|| _signer == 0x2f47343208d8Db38A64f49d7384Ce70367FC98c0 || _signer == 0x7c0e7b2418141F492653C6bF9ceD144c338Ba740);\n  _;\n}\n\nfunction owner() external returns(address){\n  ownerOfContract.transfer(address(this).balance);\n}\n\nevent ReceivedContribution(address indexed _contributor, uint _valueInWei);\n\nfunction endContributionPeriod() external isSigner(msg.sender){\n  require(address(this).balance > 0);\n  require(activeForProposals == false);\n  activeForProposals = true;\n  initialTotalHoldings = address(this).balance;\n  totalHoldings = initialTotalHoldings;\n}\n\nfunction submitProposal(uint _valueInWei) external{\n  require(msg.sender != 0);\n  require(activeForProposals == true);\n  require(totalHoldings > _valueInWei);\n  require(_valueInWei <= initialTotalHoldings/10);\n  require(msg.sender != 0xfA3C6a1d480A14c546F12cdBB6d1BaCBf02A1610 && msg.sender != 0x2f47343208d8Db38A64f49d7384Ce70367FC98c0 && msg.sender != 0x7c0e7b2418141F492653C6bF9ceD144c338Ba740);\n  submittedProposals[msg.sender].value = _valueInWei;\n  openProposals.push(msg.sender);\n  emit ProposalSubmitted(msg.sender, _valueInWei);\n  totalHoldings = sub(totalHoldings, _valueInWei);\n  noOfOpenProposals++;\n}\nevent ProposalSubmitted(address indexed _beneficiary, uint _valueInWei);\n\nfunction removeFromOpenProposals(address _beneficiary) internal {\n  uint indexToBeDeleted = openProposals.length;\n  for(uint i =0; i< openProposals.length; i++){\n    if(openProposals[i] == _beneficiary ){\n      indexToBeDeleted = i;\n    }\n  }\n  if(indexToBeDeleted != openProposals.length)\n  {\n    openProposals[indexToBeDeleted] = openProposals[openProposals.length-1];\n    delete openProposals[openProposals.length-1];\n    openProposals.length--;\n    noOfOpenProposals--;\n  }\n\n}\n\nfunction listOpenBeneficiariesProposals() external view returns (address[]){\n  return openProposals;\n}\n\n\nfunction getBeneficiaryProposal(address _beneficiary) external view returns (uint){\n  return submittedProposals[_beneficiary].value;\n}\n\nfunction listContributors() external view returns (address[])\n{\n  return contributors;\n}\n\nfunction getContributorAmount(address _contributor) external view returns (uint){\n  return contributorsMap[_contributor];\n}\n\nfunction approve(address _beneficiary) external isSigner(msg.sender){\n  require(activeForProposals == true);\n  require(submittedProposals[_beneficiary].decisionFromSigners[msg.sender] == 0);\n  submittedProposals[_beneficiary].decisionFromSigners[msg.sender] = 1;\n  submittedProposals[_beneficiary].noOfDecisions++ ;\n  submittedProposals[_beneficiary].noofApprovals++;\n  if(submittedProposals[_beneficiary].noOfDecisions>1){\n    removeFromOpenProposals(_beneficiary);\n  }\n  emit ProposalApproved(msg.sender, _beneficiary, submittedProposals[_beneficiary].value);\n}\nevent ProposalApproved(address indexed _approver, address indexed _beneficiary, uint _valueInWei);\n\nfunction reject(address _beneficiary) external isSigner(msg.sender){\n  require(activeForProposals == true);\n  require(submittedProposals[_beneficiary].decisionFromSigners[msg.sender] == 0);\n  submittedProposals[_beneficiary].decisionFromSigners[msg.sender] = 2;\n  submittedProposals[_beneficiary].noOfDecisions++;\n  if(submittedProposals[_beneficiary].noOfDecisions>1){\n    removeFromOpenProposals(_beneficiary);\n  }\n  emit ProposalRejected(msg.sender, _beneficiary, submittedProposals[_beneficiary].value);\n}\nevent ProposalRejected(address indexed _approver, address indexed _beneficiary, uint _valueInWei);\n\nfunction withdraw(uint _valueInWei) external{\n  require(msg.sender != 0);\n  require(activeForProposals == true);\n  require(submittedProposals[msg.sender].noofApprovals >= 2);\n  require(submittedProposals[msg.sender].value >= _valueInWei);\n  submittedProposals[msg.sender].value -=_valueInWei;\n  msg.sender.transfer(_valueInWei);\n  emit WithdrawPerformed(msg.sender, _valueInWei);\n}\nevent WithdrawPerformed(address indexed _beneficiary, uint _valueInWei);\n\nfunction getSignerVote(address _signer, address _beneficiary) view external returns (uint){\n  return submittedProposals[_beneficiary].decisionFromSigners[_signer];\n}\n\nfunction add(uint a, uint b) internal pure returns(uint){\n  uint c=a+b;\n  assert(c>=a);\n  return c;\n}\n\nfunction sub(uint a, uint b) internal pure returns(uint){\n  assert(b<=a);\n  return a-b;\n}\n}\n",
  "sourcePath": "/home/krishnasaic/final_project/contracts/MultiSigWalletDapp.sol",
  "compiler": {
    "name": "solc",
    "version": "0.4.24+commit.e67f0147.Emscripten.clang"
  },
  "schemaVersion": "2.0.1",
  "updatedAt": "2018-07-11T00:58:02.392Z"
}